:030000000214F4F3
:0C14F400787FE4F6D8FD75817F02153B7F
:10089900427574746F6E203320746F20534E4F4F1E
:1008A9005A4500427574746F6E203420746F20634A
:1008B900616E63656C0053455420444154453A00C8
:1008C9005345542054494D453A0053746F7057614C
:1008D9007463683A0030303A30303A3030004C7541
:1008E9006E61723A20004E65772059656172204425
:1008F9006179004C61626F757220446179004E61C3
:1009090074696F6E616C2044617900436872697320
:10091900746D617320446179004368696E6573651C
:10092900204E6577205965617200476F6F642046D4
:10093900726964617900566573616B20446179005D
:100949004861726920526179610048617269205277
:100959006179612048616A69004465657061766101
:100969006C6900555443002B002D003A3030005477
:10097900696D653A200053455420414C41524D0060
:10098900423120446174652042322053657441200C
:100999002020202020200042332053746F705720DC
:1009A900423520424C202020202020200004BA5328
:1009B9000A5B48652BBC052B500A9345474AB90683
:1009C900AA4C0AD54124DAB604B64A69573D0A4EFB
:1009D900510D26465E933A0D534D05AA4336B53758
:1009E900096D4BB4AEBF04AD530A4D486D25BC0D1E
:1009F900254F0D52445DAA380B5A4C056D4124AD63
:100A0900B6049B4A7A4BBE0A4B510AA5465B52BAB9
:100A190006D24E0ADA42355B3709374B8497C1044F
:100A29009753064B4866A53C0EA54F06B2444AB6F5
:100A3900380AAE4C092E423C97350C96497D4ABD81
:100A49000D4A510DA54555AABA056A4E0A6D434589
:100A59002EB7052D4B8A95BF0A95530B4A476B55FF
:100A69003B0AD54F055A454A5D380A5B4C052B426E
:100A79003A93B60693497729BD06AA510AD5465431
:100A8900DABA04B64E0A57434527380D264A8E93DB
:100A99003E0D52520DAA4766B53B056D4F04AE4552
:100AA9004A4EB90A4D4C0D15412D92B5001F3B5ABE
:100AB9007897B5D4F301110130014E03070F1F1FB9
:100AC9001F1F1F181E1F1F1F1F1F1F071F1F1F1F4D
:100AD9001F1F1F10181C1E1E1E1E1E0F07030100BC
:100AE9000000001F1F1F1F1F0F07011F1F1F1F1FB0
:0B0AF9001C18001C181000000000007A
:10133300162053756E4D6F6E54756557656454680A
:10134300754672695361740001190001400001631D
:1013530000016400017100017200014600014800B0
:10136300016F01015E01015B00015C00014C0001A2
:101373004E00017000016900017300011F00014765
:1013830000013D00014B00016200014D01013F01DD
:1013930001440C011B14011A0F016C00013B0001F5
:1013A3006000015F00016A000113000111000118D0
:1013B30000011D00011200010900015100010C0090
:0C13C300010800010B00015708015D004B
:081A85007F287E237D007C0018
:101A8D008F7D8E7C8D7B8C7A787A74FF1212FCE4BC
:0B1A9D00FBFAF9F8C31212E970EE2208
:101AC600D2917F327E00121A89C2917F327E007DCA
:061AD600007C00021A8DE5
:101A0000E4F576758030C296C297121AC67FEE7ED4
:101A100002121A890576E576C3940340E67580388C
:101A2000121AC675800C121AC6758001121AC67574
:051A30008002021AC64D
:07000E008F80D296021AC692
:071B1D008F80C296021AC678
:0619C3007BFF7A0879D3D6
:0619C9008B768A77897815
:1019CF00E4F579AB76AA77A978121B08C3E5799F5E
:1019DF00EE6480F87480985017AB76AA77A9788553
:1019EF007982758300121255FF12000E057980D38C
:0119FF0022C5
:101AA80074202544F8E6FF12000E74212544F8E658
:0E1AB800FF12000E74222544F8E6FF02000E15
:03001500B2A7226D
:10061400E53FB40109E54D64017003020891E53F2B
:10062400B40509E54D64017003020891E53FB4087F
:1006340009E54D64097003020891E53FB40C09E52E
:100644004D64197003020891E53FB40213E54DB4FB
:10065400130EE51BB41409E51A640F700302089124
:10066400E53FB40213E54DB4140EE51BB41409E5DB
:100674001A640F7003020891E53FB40213E54DB408
:10068400080EE51BB41409E51A64107003020891FE
:10069400E53FB40213E54DB4090EE51BB41409E5B6
:1006A4001A64107003020891E53FB40113E54DB4D8
:1006B4001C0EE51BB41409E51A64117003020891B9
:1006C400E53FB40113E54DB41D0EE51BB41409E573
:1006D4001A64117003020891E53FB40213E54DB4A6
:1006E400100EE51BB41409E51A6412700302089194
:1006F400E53FB40213E54DB4110EE51BB41409E54E
:100704001A64127003020891E53FB40213E54DB474
:10071400050EE51BB41409E51A641370030208916D
:10072400E53FB40213E54DB4060EE51BB41409E528
:100734001A64137003020891E53FB40113E54DB444
:10074400190EE51BB41409E51A6414700302089128
:10075400E53FB40113E54DB41A0EE51BB41409E5E5
:100764001A64147003020891E53FB40213E54DB412
:100774000C0EE51BB41409E51A6415700302089104
:10078400E53FB40213E54DB40D0EE51BB41409E5C1
:100794001A64157003020891E53FB40213E54DB4E1
:1007A400010EE51BB41409E51A64167003020891DE
:1007B400E53FB40213E54DB4020EE51BB41409E59C
:1007C4001A64167003020891E53FB40113E54DB4B1
:1007D400160EE51BB41409E51A6417700302089198
:1007E400E53FB40113E54DB4170EE51BB41409E558
:1007F4001A64177003020891E53FB40213E54DB47F
:100804000A0EE51BB41409E51A6418700302089172
:10081400E53FB40210E54DB40B0BE51BB41406E53B
:100824001A64186068E53FB40410E54DB4030BE5A1
:100834001BB41406E51A640F6053E53FB40610E5D3
:100844004DB4010BE51BB41406E51A640F603EE5D4
:100854003FB40710E54DB4110BE51BB41406E51ABB
:10086400640F6029E53FB40910E54DB4180BE51B8E
:10087400B41406E51A640F6014E53FB40B13E54D98
:10088400B40A0EE51BB41409E51AB40F047570011B
:0508940022E4F57022D2
:03000B0002104C94
:10104C00C0E0C0F0C0D0C28D758CB1758AE005418E
:10105C00E541646470570549F541E549B43C050523
:10106C0052754900E552B43C050561755200E561C5
:10107C00B4180B756100054D74032544F544E54423
:10108C00B41703754400E54DB42005754D01053FBB
:10109C00E53FB40D11754900755200756100754D31
:1010AC0001753F01051AE51AB46302051BE5497584
:1010BC00F00A844430F537E54975F00A84E5F044CC
:1010CC0030F539E55275F00A844430F542E5527535
:1010DC00F00A84E5F04430F543E56175F00A844488
:1010EC0030F54FE56175F00A84E5F04430F550E5D4
:1010FC004D75F00A844430F53CE54D75F00A84E5F5
:10110C00F04430F53EE53F75F00A844430F514E5C3
:10111C003F75F00A84E5F04430F515E51B75F00ACF
:10112C00844430F50DE51B75F00A84E5F04430F588
:10113C000EE51A75F00A844430F574E51A75F00A58
:0E114C0084E5F04430F575D0D0D0F0D0E0321C
:03001B0002167159
:10167100C0E0C0F0C0D0C28F758DB1758BE005366A
:10168100E536B464170545753600E545B43C0505F6
:101691004A754500E54AB43C03754A00E53675F0E4
:1016A1000A844430F50FE53675F00A84E5F04430DC
:1016B100F510E54575F00A844430F51CE54575F0F3
:1016C1000A84E5F04430F51EE54A75F00A84443099
:1016D100F538E54A75F00A84E5F04430F53AD0D0A2
:0516E100D0F0D0E03262
:1018EB00121AA87F2C12000EAF1412000EAF151295
:1018FB00000E7F2D12000EAF3C12000EAF3E1200F9
:10190B000E7F2D12000EAF0D12000EAF0E12000E39
:10191B00AF7412000EAF7512000E7F2C12000EE585
:0E192B0070B401047F4880027F2012000E225B
:10193900E54075F00A844430F571E54075F00A8494
:10194900E5F04430F572E51975F00A844430F56321
:10195900E51975F00A84E5F04430F564AF711200B9
:101969000EAF7212000E7F3A12000EAF6312000E14
:05197900AF6402000E46
:1013D000E56F75F00A844430F55BE56F75F00A84BB
:1013E000E5F04430F55CE55E75F00A844430F54C78
:1013F000E55E75F00A84E5F04430F54EE51B75F0C6
:101400000A844430F50DE51B75F00A84E5F044309C
:10141000F50EE51A75F00A844430F574E51A75F096
:101420000A84E5F04430F575121AA87F2C12000EDC
:10143000AF4C12000EAF4E12000E7F2D12000EAFF9
:101440005B12000EAF5C12000E7F2D12000EAF0D6E
:1014500012000EAF0E12000EAF7412000EAF750226
:02146000000E7C
:10146200AE65AF667C007D0A121294EF4430F55BE4
:10147200AE65AF667C007D0A121294ED4430F55CD5
:10148200AE53AF547C007D0A121294EF4430F54CF7
:10149200AE53AF547C007D0A121294ED4430F54EE7
:1014A200AE58AF597C007D0A121294EF4430F56BAE
:1014B200AE58AF597C007D0A121294ED4430F56D9E
:1014C200AF4C12000EAF4E12000E7F2D12000EAF67
:1014D2005B12000EAF5C12000E7F2D12000EAF0DDC
:1014E20012000EAF0E12000EAF6B12000EAF6D02A5
:0214F200000EEA
:10197E00E56975F00A844430F555E56975F00A8419
:10198E00E5F04430F556E57375F00A844430F5679A
:10199E00E57375F00A84E5F04430F568AF67120020
:1019AE000EAF6812000E7F3A12000EAF5512000EE7
:0519BE00AF5602000E0F
:101ADC00D2A67FE87E03121A89C2A67FE87E037D18
:061AEC00007C00021A8DCF
:101AF200D2A77FE87E03121A89C2A77FE87E037D00
:061B0200007C00021A8DB8
:1016E600E561B40706E5527002D2A7E561B41306B8
:1016F600E5527002C2A7E56165737055E5526569EA
:10170600704FE512640170497F01121B1D7F801224
:101716001B1D7BFF7A0879991219C9121ADC121A55
:10172600F27FC0121B1D7BFF7A0879AC1219C92003
:10173600920A7509018552690569800C2093CEE4E9
:10174600F512F573F569F5097F01121B1DC2A6C2D4
:02175600A722C8
:100B04007F01121B1D1216E630B303020BA9055E0A
:100B1400E55ED3940C4003755E01E55E64016023D9
:100B2400E55E6403601DE55E64056017E55E6407C9
:100B34006011E55E6408600BE55E640A6005E55ECD
:100B4400B40C1074092544F544D394144051E4F5CD
:100B540044804CE55E64027021E551B401107403D5
:100B64002544F544D394144003E4F5448031E5442A
:100B7400D394144003E4F5448025E55E64046011D5
:100B8400E55E6409600BE55E64066005E55EB40B32
:100B94001174062544F544D394144003E4F5441237
:100BA4001A85020D23309003020C4874032544F582
:100BB40044D394144003E4F544E55E64016023E502
:100BC4005E6403601DE55E64056017E55E640760AE
:100BD40011E55E6408600BE55E640A6005E55EB4D9
:100BE4000C0F056FE56FD3941F4003756F01020D61
:100BF40023E55E64027023E551B4010F056FE56FD0
:100C0400D3941D4003756F01020D23056FE56FD367
:100C1400941C4003756F01020D23E55E64046015A6
:100C2400E55E6409600FE55E64066009E55E640BD9
:100C34006003020D3B056FE56FD3941E4003756F8F
:100C440001020D23309203020CE2E5447005754461
:100C540012800674FD2544F544E55E64016023E5D5
:100C64005E6403601DE55E64056017E55E6407600D
:100C740011E55E6408600BE55E640A6005E55EB438
:100C84000C0F156FE56FC394015003756F1F020DB0
:100C940023E55E64027021E551B4010E156FE56F22
:100CA400C394015003756F1D8075156FE56FC39470
:100CB400015003756F1C8067E55E64046012E55E95
:100CC4006406600CE55E64096006E55E640B7067AB
:100CD400156FE56FC394015003756F1E8041209317
:100CE40043051AE51AB46405051BE4F51AE51B541B
:100CF4000375F064A4251A5403701374032544F592
:100D040044D394144003E4F54475510180117406EE
:100D14002544F544D394144003E4F544E4F5511216
:100D24001A8580132094107F01121B1D7F287E23B7
:100D34007D007C00021A8D7F80121B1D7BFF7A08C8
:100D440079BF1219C97FC0121B1D1213D0856F4DB4
:060D5400855E3F020B0961
:1015FA007F01121B1D1216E620B30E0540E540D3EB
:10160A0094174025E4F540802020900E0519E5192D
:10161A00D3943B4003E4F519800F209211E519C3D6
:10162A009401500375193C1519121A8580132094D8
:10163A00107F01121B1D7F287E237D007C00021A69
:10164A008D7F80121B1D7BFF7A0879C91219C97F09
:10165A00C0121B1D121939E5197004E54060968500
:07166A004061851952808EDA
:08000300E4F536F545F54A224B
:101A3500AF4F12000EAF5012000E7F3A12000EAFDC
:101A45004212000EAF4312000E7F3A12000EAF375E
:081A550012000EAF3902000E71
:101A5D00AF3812000EAF3A12000E7F3A12000EAFE1
:101A6D001C12000EAF1E12000E7F3A12000EAF0FA9
:081A7D0012000EAF1002000E72
:10182A001216E6E51DB4011B208E187F80121B1DBF
:10183A001219C37FC4121B1D7BFF7A0879DE1219A5
:10184A00C980107F80121B1D1219C37FC4121B1D71
:10185A00121A5D20B307E53D7003753D0130B308E8
:10186A00E53DB40103753D0220B30CE53DB4020722
:10187A00E4F53DF51DB28E209006751D0112000398
:07188A0020949D121A852233
:10189100E5187F01701B121B1D7F80121B1D121981
:1018A100C37FC4121B1D7BFF7A0879DE1219C98020
:1018B10013121B1D7F80121B1D1219C37FC4121B23
:1018C1001D121A5D1216E6E518B40102800D20B34F
:1018D1000F7518017F01121B1DD28E12182A80EE7E
:0A18E10020940312182A2094DB2241
:10031A007F01121B1D1216E67F80121B1D7BFF7ABE
:10032A000879E71219C91214627FC0121B1DE53F32
:10033A00B40111E54DB4010C7570017BFF7A08799F
:10034A00EF020602E53FB40511E54DB4010C7570E4
:10035A00017BFF7A0879FC020602E53FB40811E541
:10036A004DB4090C7570017BFF7A09790702060200
:10037A00E53FB40C11E54DB4190C7570017BFF7A99
:10038A00097914020602E53FB40213E54DB4130ECF
:10039A00E51BB41409E51A640F700302055DE53F15
:1003AA00B40213E54DB4140EE51BB41409E51A643E
:1003BA000F700302055DE53FB40213E54DB4080E64
:1003CA00E51BB41409E51A6410700302055DE53FE4
:1003DA00B40213E54DB4090EE51BB41409E51A6419
:1003EA0010700302055DE53FB40113E54DB41C0E20
:1003FA00E51BB41409E51A6411700302055DE53FB3
:10040A00B40113E54DB41D0EE51BB41409E51A64D5
:10041A0011700302055DE53FB40213E54DB4100EF9
:10042A00E51BB41409E51A6412700302055DE53F81
:10043A00B40213E54DB4110EE51BB41409E51A64B0
:10044A0012700302055DE53FB40213E54DB4050ED3
:10045A00E51BB41409E51A6413700302055DE53F50
:10046A00B40213E54DB4060EE51BB41409E51A648B
:10047A0013700302055DE53FB40113E54DB4190E8F
:10048A00E51BB41409E51A6414700302055DE53F1F
:10049A00B40113E54DB41A0EE51BB41409E51A6448
:1004AA0014700302055DE53FB40213E54DB40C0E6A
:1004BA00E51BB41409E51A6415700302055DE53FEE
:1004CA00B40213E54DB40D0EE51BB41409E51A6424
:1004DA0015700302055DE53FB40210E54DB4010B4A
:1004EA00E51BB41406E51A64166068E53FB4021009
:1004FA00E54DB4020BE51BB41406E51A6416605305
:10050A00E53FB40110E54DB4160BE51BB41406E53E
:10051A001A6417603EE53FB40110E54DB4170BE5C8
:10052A001BB41406E51A64176029E53FB40210E506
:10053A004DB40A0BE51BB41406E51A64186014E5F9
:10054A003FB4021BE54DB40B16E51BB41411E51AB2
:10055A00B4180C7570017BFF7A097922020602E54C
:10056A003FB4041AE54DB40315E51BB41410E51A9B
:10057A00B40F0B7570017BFF7A097933807AE53FF6
:10058A00B4061AE54DB40115E51BB41410E51AB406
:10059A000F0B7570017BFF7A09793F805BE53FB4E9
:1005AA00071AE54DB41115E51BB41410E51AB40F7A
:1005BA000B7570017BFF7A097949803CE53FB409E4
:1005CA001AE54DB41815E51BB41410E51AB40F0B4F
:1005DA007570017BFF7A097953801DE53FB40B1DC5
:1005EA00E54DB40A18E51BB41413E51AB40F0E75D9
:1005FA0070017BFF7A0979621219C98003E4F570E8
:0A060A0030940302031F121A852228
:100EE9007F01121B1D7F80121B1D7BFF7A09796C04
:100EF9001219C9E557D3940C7BFF50157A097970FB
:100F09001219C9E55775F00A844430F508E5578088
:100F1900187A0979721219C9C374199557F50C759C
:100F2900F00A844430F508E50C75F00A84E5F044CC
:100F390030F50BAF0812000EAF0B12000E7BFF7AD3
:100F49000979741219C97FC0121B1DE55A75F00A77
:100F5900844430F546E55A75F00A84E5F04430F5E5
:100F690048AF4612000EAF4812000E7F3A12000E2B
:100F7900AF4212000EAF4312000E7F3A12000EAFBD
:100F89003712000EAF3912000E20B353E557B418CB
:100F9900057557018002055785615AE557D39408AD
:100FA900501DC374089557F55DE55DD39400402D38
:100FB900E55A7005755A178002155A155D80EAE5DC
:100FC9005724F8F55DE55DD394004067E55A941719
:100FD9004005E4F55A8002055A155D80E8805420E1
:100FE9009057E557B4010575571880021557856163
:100FF9005AE557D39408501DC374089557F55DE514
:101009005DD39400402DE55A7005755A1780021575
:101019005A155D80EAE55724F8F55DE55DD394003E
:101029004011E55A94174005E4F55A8002055A150E
:101039005D80E8121A85020EEE309403020EEE125C
:031049001A8522E3
:1017C2007F01121B1D1216E61206147F80121B1DCA
:1017D2001218EB7FC1121B1D7BFF7A09797812194F
:1017E200C9121A3520B303756E0130B30BE56EB41E
:1017F20001061215FAE4F56E20900375620130902D
:101802000BE562B40106120B04E4F56220920CAB04
:101812004DAD3FAF1A120D5A12031A209303120E46
:08182200E92094A1121A8522AD
:101758007F01121B1D20B3120573E573D394174044
:1017680003E4F573121A857512012090120569E5D4
:1017780069D3943B4003E4F569121A857512012078
:101788009212E569C39401500375693C1569121AF0
:101798008575120120940B7F287E237D007C000232
:1017A8001A8D7F80121B1D7BFF7A09797F1219C958
:0A17B8007FC0121B1D12197E809BDA
:10001E00E4F5767F40121B1DE4F576AF76EF33954F
:10002E00E0FE74C42FF582740A3EF583E493FF124A
:10003E00000E0576C3E576648094C040DE7F8012A4
:10004E001B1DE4F576AF7612000E0576C3E57664D9
:10005E0080948440F07FC0121B1D757604AF76121B
:10006E00000E0576C3E5766480948840F07FD07EDE
:10007E0007121A897F01121B1D7F81121B1DE4F5C9
:10008E0076AF7612000E0576C3E5766480948440D2
:10009E00F07FC1121B1D757604AF7612000E057629
:1000AE00C3E5766480948840F07FD07E07121A896B
:1000BE007F01121B1D7F82121B1DE4F576AF761297
:1000CE00000E0576C3E5766480948440F07FC212FC
:1000DE001B1D757604AF7612000E0576C3E57664A9
:1000EE0080948840F07FD07E07121A897F01121B00
:1000FE001D7F83121B1DE4F576AF7612000E05767A
:10010E00C3E5766480948440F07FC3121B1D757620
:10011E0004AF7612000E0576C3E5766480948840AF
:10012E00F07FD07E07121A897F01121B1D7F841269
:10013E001B1DE4F576AF7612000E0576C3E57664E8
:10014E0080948440F07FC4121B1D757604AF761226
:10015E00000E0576C3E5766480948840F07FD07EED
:10016E0007121A897F01121B1D7F85121B1DE4F5D4
:10017E0076AF7612000E0576C3E5766480948440E1
:10018E00F07FC5121B1D757604AF7612000E057634
:10019E00C3E5766480948840F07FD07E07121A897A
:1001AE007F01121B1D7F86121B1DE4F576AF7612A2
:1001BE00000E0576C3E5766480948440F07FC61207
:1001CE001B1D757604AF7612000E0576C3E57664B8
:1001DE0080948840F07FD07E07121A897F01121B0F
:1001EE001D7F87121B1DE4F576AF7612000E057685
:1001FE00C3E5766480948440F07FC7121B1D75762C
:10020E0004AF7612000E0576C3E5766480948840BE
:10021E00F07FD07E07121A897F01121B1D7F881274
:10022E001B1DE4F576AF7612000E0576C3E57664F7
:10023E0080948440F07FC8121B1D757604AF761231
:10024E00000E0576C3E5766480948840F07FD07EFC
:10025E0007121A897F01121B1D7F89121B1DE4F5DF
:10026E0076AF7612000E0576C3E5766480948440F0
:10027E00F07FC9121B1D757604AF7612000E05763F
:10028E00C3E5766480948840F07FD07E07121A8989
:10029E007F01121B1D7F8A121B1DE4F576AF7612AD
:1002AE00000E0576C3E5766480948440F07FCA1212
:1002BE001B1D757604AF7612000E0576C3E57664C7
:1002CE0080948840F07FD07E07121A897F01121B1E
:1002DE001D7F8B121B1DE4F576AF7612000E057690
:1002EE00C3E5766480948440F07FCB121B1D757637
:1002FE0004AF7612000E0576C3E5766480948840CE
:0C030E00F07FD07E077D007C00021A8D7D
:10158000C2A6C2A7C291121A007F01121B1DD2AFC0
:10159000D2A9D2AB758911D28CC28E12001E7F01E6
:1015A000121B1D1216E67F80121B1D7BFF7A097924
:1015B000891219C97FC0121B1D7BFF7A0979A012FD
:1015C00019C920B303754B0130B30BE54BB40106C9
:1015D0001217C2E4F54B20900312175820920512FF
:1015E000189180F82094037547013094B6E547B40C
:0A15F00001B1120015E4F54780A9CF
:06115A00AD7DAC7CAF7915
:10116000EF14B40D00400302125490117875F0038F
:10117000A4C58325F0C5837302119F0211AD02112E
:10118000BB0211C90211D70211E50211F3021201CB
:1011900002120F02121D02122B021239021247ED27
:1011A0009009B69354087002FF227F0122ED900946
:1011B000B69354047002FF227F0122ED9009B6938A
:1011C00054027002FF227F0122ED9009B693540170
:1011D0007002FF227F0122ED9009B79354807002C4
:1011E000FF227F0122ED9009B79354407002FF2245
:1011F0007F0122ED9009B79354207002FF227F01F6
:1012000022ED9009B79354107002FF227F0122ED66
:101210009009B79354087002FF227F0122ED9009D4
:10122000B79354047002FF227F0122ED9009B79317
:1012300054027002FF227F0122ED9009B7935401FE
:101240007002FF227F0122ED9009B8935480700252
:04125000FF227F01F9
:011254002277
:060D5A008F768B77AA05DD
:100D6000EF24F1FFE434FFFE7C007D031212828E3B
:100D70007C8F7DEF9009B893FE5460FB7805FF08E7
:100D8000800103D8FDFBEE541FF9BB010514F57873
:100D90008005E9241EF578EAC3940AEA500B900A0C
:100DA000B4932577FFE433801525E024AAF582E487
:100DB000340AF5837401932577FFE4933400CF243C
:100DC000FFF57BEF34FFF57AEAD39402400EE57627
:100DD00054037008057BE57B7002057AAF787E00CE
:100DE000C3E57B9FE57A9E4072E57B9FF57BE57AC4
:100DF0009EF57A7A0175790112115A8F7EE4F57F9A
:100E0000E57E70047B1D80027B1EE57D9009B69314
:100E100054F0F97804FF08800103D8FDF9EBFF7E58
:100E200000C3E57B9FE57A9E402CE57B9FF57BE543
:100E30007A9EF57A0579EAB5010A637FFFE57F704E
:100E4000040A80010A12115A8F7EE57E70047B1D10
:100E500080CB7B1E80C7E57B020ECFC3E578957BF8
:100E6000F578157674FD257DF57D74FF357CF57C70
:100E70007A0CE57D9009B69354F0F97804FF088068
:100E80000103D8FDF9700575790C800375790DE4BF
:100E9000F57F12115A8F7EE57E70047B1D80027BE8
:100EA0001EE578D39B4024E5789BF5781579E57F9E
:100EB00070011AEAB50103637FFF12115A8F7EE5B4
:100EC0007E70047B1D80DA7B1E80D6C3EB95780490
:100ED000F577750A01755800857659AF027553008C
:080EE0008F54756500857766EB
:010EE80022E7
:10150000021580E493A3F8E493A34003F68001F26C
:1015100008DFF48029E493A3F85407240CC8C333EC
:10152000C4540F4420C8834004F456800146F6DFBB
:10153000E4800B0102040810204080901333E47E05
:10154000019360BCA3FF543F30E509541FFEE493B0
:10155000A360010ECF54C025E060A840B8E493A377
:10156000FAE493A3F8E493A3C8C582C8CAC583CAA2
:10157000F0A3C8C582C8CAC583CADFE9DEE780BE5A
:0113CF00001D
:10125500BB010CE58229F582E5833AF583E022504E
:1012650006E92582F8E622BBFE06E92582F8E22298
:0D127500E58229F582E5833AF583E49322B2
:10128200EF8DF0A4A8F0CF8CF0A428CE8DF0A42E80
:02129200FE223A
:10129400BC000BBE0029EF8DF084FFADF022E4CC3E
:1012A400F875F008EF2FFFEE33FEEC33FCEE9DEC07
:1012B400984005FCEE9DFE0FD5F0E9E4CEFD22ED4D
:1012C400F8F5F0EE8420D21CFEADF075F008EF2F97
:1012D400FFED33FD4007985006D5F0F222C398FD88
:0512E4000FD5F0EA2225
:1012E900EB9FF5F0EA9E42F0E99D42F0E89C45F05B
:0112F90022D2
:1012FA007401FF3395E0FEFDFC080808E6CF2FF6DF
:10130A0018E6CE3EF618E6CD3DF618E6CC3CF622B7
:101B0800E4FFFE12131A600C0FEF70010E09E97062
:051B1800F20A80EF223B
:10131A00BB010689828A83E0225002E722BBFE02D1
:09132A00E32289828A83E4932204
:00000001FF
